:10400000201C0020611B020089A600008DA6000074
:10401000A70A0A010042000004180FAC5065B00165
:104020000000000000000000000000000000000090
:1040300000000000F0050300000000000000000088
:104040000000000000000000FFFFFFFFFFFFFFFF78
:10405000FFFFFFFF007003000000000000000400ED
:10406000FFFFFFFFFFFFFFFF100000000000000048
:104070000000000000000000000000000000000040
:1040800088420020843600208436002084360020B8
:10409000201C0020602D0300D4020300C012002069
:0C40A0008B120020000004008842002069
:10420000201C0020611B020089A600008DA6000072
:1042100095A6000091A6000099A600005D1B020073
:104220005D1B02005D1B02005D1B02005D1B0200A6
:104230009DA600005D1B02005D1B02005D1B0200CD
:1042400029580000A1EF0200B5AA00001DEB0200F2
:104250000DF00200ADEF0200C5EF0200A5EF020075
:10426000654F000039500000156A000035BB0000A2
:1042700004A8000004A80000F543000004A8000002
:1042800004A800005D50000004A8000004A800007D
:1042900004A8000004A8000004A8000004A800006E
:1042A00004A8000004A8000004A8000011F0020007
:1042B000A9EF0200B555000051F0020004A800006B
:0842C00085B7020004A800000C
:1042C800F8B500BFF8BC08BC9E467047F8B500BFFB
:1042D800F8BC08BC9E46704710B5054C237833B926
:1042E800044B13B10448AFF300800123237010BDC1
:1042F80024210020000000005428030008B5034BC7
:104308001BB103490348AFF3008008BD000000005B
:104318002821002054280300154B002B08BF134BFD
:104328009D46A3F5803A00218B460F461348144A50
:10433800121A2BF0B8FF0F4B002B00D098470E4BEA
:10434800002B00D098470020002104000D000D48E4
:10435800002802D00C48AFF300802BF075FF200036
:1043680029001EF0A1F92BF05BFF00BF0000080038
:10437800201C002000000000000000002421002074
:1043880084360020000000000000000070B5134CC7
:104398008A00A31822449B781D09062D98BF104E49
:1043A80003F00F0394BF755DFF25062B05719ABFB7
:1043B8000C4DEB5CFF234371FF3B18BF0123837156
:1043C800D37014F82130084C437053788370014639
:1043D800204602F091FB0123A36070BD402100201C
:1043E8001B05030014050300002000407FB5224987
:1043F80022480022FF23CDE901228DF809300378F5
:104408004C6C8D6B03922C40E407DBB228D5022B51
:1044180026D88C6C1A4901EB8301A5B2CE781949CC
:1044280006B326041ED521F813201749012202FAE3
:1044380003F30A781343154A0B701378CBB10023A2
:104448001478DC40E407D9B20FD501701078012444
:1044580004FA03F34340DBB201A81370FFF796FF99
:1044680004B070BD21F81350DFE70133032BE7D107
:10447800F6E703230370F3E7002000404C210020F7
:1044880040210020502100204E2100204D210020F5
:104498000120704701207047012814BF0220002026
:1044A80070470120704700207047012070470120A5
:1044B8007047002070470120704700207047002097
:1044C80070470120704700207047012070477047EF
:1044D8007047000010B5104C1049A16103232166F4
:1044E8000F491022C4E904330E4BE361C4E91912E1
:1044F80000230D49A362E01D6362E3622367E3665C
:10450800636722622BF0D7FE084920462BF0D3FEC2
:104518002023A37110BD00BF003000202205030036
:1045280056210020662100202B0503002F050300DB
:104538002DE9F84F1F4B16461A7881468A46984649
:104548000AB9FFF7C7FF182707FB09873D6FD7F898
:104558006CB05D452BD9BC6E796E641BB44228BF24
:1045680034462944504622462BF092FEBB6E254421
:10457800A244361BAB4208BF0025ABEB050B5E45DA
:1045880028BF5E4656B1182303FB09833246596E8D
:10459800504629442BF07CFE3444354424B118237A
:1045A80003FB0988C8F870502046BDE8F88F00243E
:1045B800E3E700BF00300020F8B504460E46174672
:1045C80002F0B1FE3A46054631462046FFF7B0FFF5
:1045D8000446284602F0ADFE2046F8BD2DE9F84312
:1045E800124D1E462B788146884617460BB9FFF7B1
:1045F80071FF02F098FE696900244FF0180C0CFB5B
:1046080004535A6E2AB10134A142F8DC4FF0FF344A
:1046180007E0A142FADDC3E918989F661A67DA66CF
:104628005E6702F086FE2046BDE8F8830030002071
:10463800FFF750BF012270B51146042002F0F2FCCA
:104648001A4B1B4D1A681B4842F001021A60DA68BF
:104658004FF0604442F08072DA60174BC4F8B03F04
:1046680000260223C4F8006EC4F8806EC5F8F03046
:1046780002F000FC00F5D520104B114A00F2FC4076
:10468800B0FBF3F00F4B01382861C4F8406E1A6094
:104698000D4BC4F8803E4FF48073C5F80433D4F84A
:1046A800003E43F48073C4F8003E70BDF0ED00E0B6
:1046B800000004E006000E0055CEACC5F8590D0008
:1046C800FF030040001000E00D00010010B50121BB
:1046D800104802F0EFFA104B01241C60002003F090
:1046E80027FA234604220221052003F079FA2046FE
:1046F80019F058FDFFF79EFF19F05AFDFFF798FFD4
:104708002346402205490648FFF768FF054B186015
:10471800C00F10BD00250A00108814427621002021
:1047280036050300281C0020024B1868003018BF0B
:1047380001207047F0ED00E0054A4170D123037075
:104748001378C370090A8170591C117004207047CE
:10475800B62100202DE9F84F2E4F3B681C5C032C36
:10476800804655D91DF03FFB0534DFF8ACA0E4B214
:1047780081464FF6FF7B0025DAF800304BB1AC429A
:1047880007D91DF030FBA0EB090080B2B0F5FA7F25
:1047980004D9601B18BF0120BDE8F88F9DB3012D17
:1047A80015D13B6813F8085002264FF06043D3F840
:1047B800802ED10709D5D3F8002ED20505D5194684
:1047C8000A6A002AFCD083F820503546D4E7E31E55
:1047D8006E1C9D42F6B202D15FFA8BF5E5E7A31E87
:1047E8009D4202D1CBF30725DFE7631E9D420DD022
:1047F800A91EC9B240460CF0BFF85946054605F057
:10480800D5FE8346D1E75B250126CEE75D25CCE7BB
:104818000120C1E7B81C0020F0ED00E010B50B4BFB
:1048280090B0402269461868FFF7C6FE58B1C1B279
:1048380068460CF02BF80446014612201DF034FCA3
:1048480020460BF0C7FE10B010BD00BF281C00208A
:1048580070B5164685180AB9304470BD01F00F03CB
:104868000A2B34BF302437242344013A090905F8B8
:10487800013DD2B2EFE70000F0B5F9B100281CDA2B
:104888002D23B0F1004F137000D04042012115E0F4
:10489800801B8642ECB205F10105F9D904B927B1AC
:1048A8004D1C303454540127E9B20133092B09D186
:1048B800303050540131C8B2F0BD00210023DFF878
:1048C8000CC01F465CF823600025E2E7480503009A
:1048D8002DE9F04F95B04FF0000B02AC81468A46A7
:1048E80017461D465E46A0463B7863B902ABE41AFC
:1048F800E4B2224619465046C847002840F0938043
:104908003444E0B290E0252B13D0BBF1000F14D152
:104918002370013412AB9C426DD3A4EB0804E4B2BB
:10492800224641465046C84700287CD12644F6B264
:1049380060E0BBF1000F00D101373B78632B00F03A
:1049480092801BD8392B09D8302B80F09E80002B01
:10495800CCD0252B51D04FF0000BDBE7582B00F0C3
:104968008B80622BF7D12B6801936B6800934FF013
:10497800000B009B9B4543D10835ECE7702B1ED0FC
:1049880017D8642B01D06C2BE5D16C2B05F1040BE7
:1049980028686CD17B78752B14BF0121002101D0C8
:1049A800642B00D101372246FFF766FF04445D46B9
:1049B800D1E7752BE9D0782B5ED0732BCBD1A4EB44
:1049C8000804E4B2224602A9504605F1040B2D68FA
:1049D800C84740BB2644F6B2C4B201302B5D002B59
:1049E800FAD1224629465046C847E0B926445D46D2
:1049F800F6B283464446013776E723700134AAE7C6
:104A0800019B204613F80B100222FFF721FF12AB7F
:104A1800984204460ED3A0EB0804E4B2224641466D
:104A28005046C84718B1002015B0BDE8F08F26449D
:104A3800F6B24446009B013B5B4582BF20232370AE
:104A4800013412AB9C420BD3A4EB0804E4B2224617
:104A580041465046C8470028E5D12644F6B24446A8
:104A68000BF1010B85E72B6823700435C6E7752B1E
:104A78000CBF0021012196E7204602222978FFF782
:104A8800E7FE05F1040B044691E77A7802F0DF02AD
:104A9800582A19D1322B07F1010B09D129882F1D6A
:104AA80004222046FFF7D4FE3D4604465F4652E7FF
:104AB800342B09D12F1D2D680422290C2046FFF71D
:104AC800C7FE0422A9B2EDE74FF0010B22E7000070
:104AD8002DE9F04F9B46584B85B01B78109F9DF8E9
:104AE80044A0DDF85080064689461546002B00F0A4
:104AF8009280072A00F291800E9B002B00F08D8097
:104B08000F9B002B00F08980129BB3F5006F00F318
:104B18008480012801D1002F7FD0484B03EB051377
:104B28001B7B002B7BD0464C1022002168462BF0C3
:104B3800BAFB04EB45141022B9F1000F5CD14946C9
:104B480020462BF0B0FBA37843F01003A370E37862
:104B580043F03003E370BAF1000F03D1DBB243F046
:104B68000303E3703649129BCDF800B06A01013B9C
:104B7800885A01EB020C63F30E1088520E9BCCF896
:104B880008300F9BCCF804309DF84C109CF803308B
:104B9800012E61F383038CF8033042D11323CCF840
:104BA8000C309CE80F000CF1100E8EE80F00DCF8BA
:104BB8001C20CCF814706FF0030161F39F02B9F167
:104BC800010FCCF81C2004D10F9BCCF81830CCF87E
:104BD80004701A492A018B1841F802800027159A97
:104BE8005A6028469F605E732246694603F086F83D
:104BF800384605B0BDE8F08F002120462BF053FB66
:104C08001023A3700323E370BAF1000FAAD1DBB21B
:104C180043F03003A5E70B48EBE70B48E9E70B48FF
:104C2800E7E7B8F1000FD4D19CF8023068F3041319
:104C38008CF80230CDE700BF38230020B8210020CF
:104C480038220020028000F0018000F0078000F088
:104C580038B5104B1B780546BBB1C0B102F063FBF9
:104C68000D49002301EB0312147B3CB92B6001238F
:104C78001373146002F05DFB204638BD0133082B26
:104C8800F0D102F056FB0548F7E70548F5E7054877
:104C9800F3E700BF38230020B8210020048000F08B
:104CA800028000F0018000F038B502F03CFB0B4AAE
:104CB80005460023D1180C7B5CB91033802BF9D141
:104CC80002F0D0FF064B28461C7002F032FB20464B
:104CD80038BD284602F02DFB0248F9E7B82100202C
:104CE80038230020058000F00D4B1B7810B50446D2
:104CF80093B1072812D802F016FB0A4B03EB0413F2
:104D08001A7B2AB100241C7302F013FB204610BD45
:104D180002F00FFB0448FAE70448F8E70448F6E70E
:104D280038230020B8210020068000F0028000F01F
:104D3800018000F013B5164B1868019000238DF818
:104D4800043002F0F0FA134B1C7824B102F0F1FAA7
:104D5800114802B010BD01221A7002F0EAFA0F4B96
:104D68001C731C7783F82C4083F83C4083F84C4034
:104D780083F85C4083F86C4083F87C4004230DEB97
:104D880003008DF8073002F08DFF2046E1E700BFF1
:104D98006C05030038230020038000F0B8210020B0
:104DA80010B588B00E9C07940D9C06949DF8304071
:104DB80005940B9C04949DF8284003940024CDE9A5
:104DC800013400920B46024621462046FFF780FE3A
:104DD80008B010BD10B588B00E9C07940D9C0694C1
:104DE8009DF8304005940B9C04949DF8284003944A
:104DF8000024CDE9013400920B46024601212046E9
:104E0800FFF766FE08B010BD08B50A4B1B785BB10A
:104E180007280BD8084B03EB00131B7B43B1002179
:104E280002F036FF002008BD0448FCE70448FAE712
:104E38000448F8E738230020B8210020028000F059
:104E4800018000F0078000F008B50A4B1B785BB1C1
:104E580007280BD8084B03EB00131B7B43B1012138
:104E680002F016FF002008BD0448FCE70448FAE7F2
:104E78000448F8E738230020B8210020028000F019
:104E8800018000F0078000F008B50A4B1B7853B189
:104E980007280AD8084B03EB00131B7B3BB102F031
:104EA8007FFF002008BD0548FCE70548FAE70548EC
:104EB800F8E700BF38230020B8210020028000F066
:104EC800018000F0078000F00D4B1B7893B1072894
:104ED80012D889B10B4B03EB00131B7B73B10A4B40
:104EE8001A6A012303FA00F010401ABF00200B7061
:104EF800087070470548704705487047054870476F
:104F080038230020B821002000200E40028000F045
:104F1800018000F0078000F00B4B1B7810B50C46A1
:104F280063B107280CD859B1084B03EB00131B7B5E
:104F380043B102F04BFF2060002010BD0448FCE79D
:104F48000448FAE70448F8E738230020B82100208D
:104F5800028000F0018000F0078000F02DE9F8439E
:104F6800174E326EF36E12EA030800D5FEE7154CB1
:104F7800DFF854900127002518EA070F16D0236898
:104F8800B7669BB1A16862680131A160284698475D
:104F9800637B012B0AD148B909EB4513197B1A7FAA
:104FA80060F3410160F3410219731A770135082D46
:104FB8004FEA470704F11004DED1BDE8F88300BFCB
:104FC80000200E40B82100203822002070B5094E7C
:104FD8000446012504B970BD94FAA4F0B0FA80F033
:104FE80005FA00F324EA030456F82030002BF1D028
:104FF8009847EFE73C230020054B4FF40032C3F8F5
:1050080080211A604FF40072C3F880211A6070473B
:1050180000E100E038B504460D4602F084F9034B80
:1050280043F82450BDE8384002F083B93C230020FF
:10503800074BD3F82804D3F81C24104020F42A5036
:1050480020F02A004004400CC3F82404FFF7BEBF38
:1050580000A00040074BD3F82804D3F81C241040C4
:1050680020F4AA4020F055000004000CC3F82404E2
:10507800FFF7ACBF00A000402DE9F84F284C4FF0D7
:10508800000A04F1A00580464FF000094FF0010B1B
:10509800237F84F81DA06BB1D4E90023994508BF8C
:1050A8009045104619460AD2B2EB080063EB090195
:1050B800C4E900012834AC42EAD1BDE8F88FE37FA7
:1050C80033B92377A369002BF4D084F81DB0F1E736
:1050D800D4E90267B8EB000069EB010132463B46B0
:1050E8002AF01EFFB01A67EB030123696269002BDF
:1050F800C4E900010BDD13441D2B6361E2D9461C92
:1051080041F100071E3BC4E900676361DAE7D31A7F
:105118001D2B6361D6D910F1FF3641F1FF37F1E756
:105128009023002038B5074C0025637F1BB1A36985
:10513800216A284698470135042D04F12804F4D142
:1051480038BD00BF90230020064B5A6A99690A406F
:10515800D20705D501221A62034A13680133136086
:10516800704700BF0020044030240020F0B5194EDD
:1051780000214FF0FF324FF0FF337418257F3DB107
:10518800D4E900459D4208BF94423CBF22462B46C5
:105198002831A029F1D1104900240C705C1C08BFEB
:1051A800B2F1FF3F0C4614D000279F420B496FF025
:1051B800640608BF9642086038BF3246084904258D
:1051C80002440D6201234A6523704B6A43F00403CD
:1051D8004B62F0BD90230020842300208023002010
:1051E800002004400F4B1B7870B50546BBB102F098
:1051F8009AF80D490023282606FB0312947F14B958
:1052080035B90A4C07E00133042BF5D1084C02E00C
:10521800012191772B6002F08CF8204670BD054C77
:10522800FBE700BF8523002090230020041000F036
:10523800011000F0061000F070B5204D2C78002CFD
:105248003AD101211E481F4E01F034FD03211E48AA
:1052580001F068FF01211D48347101F02BFD304633
:1052680002F088FE1A49012002F06AFE194B1A481A
:105278005A6A22F4FF6222F007025A6240F2FF7271
:105288001A62164A9C604FF00051C2F880111160F2
:105298005A6A42F001025A622146A0222BF003F812
:1052A8000F4B1C700F4B1C700F4B1C600F4B1C607E
:1052B8000F4B1C6001232B70002070BD852300203C
:1052C80000050A002C1C002005002400A009140079
:1052D800351C0020002004409023002000E100E05D
:1052E8007C230020842300208823002030240020F1
:1052F800342400202DE9F74F93465C4A127807467C
:1053080089461E46002A00F0AD80032800F2AC80D2
:1053180002F009F8564A282404FB07248046A17F96
:10532800924629B902F005F8524803B0BDE8F08F5B
:10533800BBF1000F08D116B10C993846B04740466A
:1053480001F0F7FF0020F0E74B4A4FF4004C4FF410
:10535800FA7000219568A6614FF47A720023ECFB7D
:105368000B012AF0DDFDB9F1010F02460B46C4E935
:10537800022309D14FF47A7303FB0BFB1E2303FBB3
:1053880010B323610F236361282303FB07A30130B4
:105398004FF0010241F10001C3E900011A770C9AAC
:1053A80083F81F901A62354B1B78002BC7D1344CF9
:1053B800236801331EBF236801332360314B0193F7
:1053C8001A78E2B9304B2C4E1D6004233362002357
:1053D8006FF064028B4208BF824238BF10462844EF
:1053E8007065736A019A43F00403736201231370B2
:1053F8002368002BA3D02368013B23609FE7236821
:10540800012BF5D1282303FB07A30026DFF86890BA
:10541800DFF874B01E77D9F8242022F00402C9F806
:105428002420DBF80000281AFFF726FEFFF77AFE93
:1054380026B9282202FB07A2012010772846FFF789
:1054480095FE114BD9F808501868D9F85420019BDB
:10545800A5EB000C121A187801360028C8D094451C
:10546800D9D2C5E7094860E709485EE785230020E7
:1054780090230020031000F0002004407C2300202B
:10548800882300208423002080230020061000F0B9
:10549800021000F02DE9F843264B1B7805460C4610
:1054A800002B41D0032841D8002941D001F03BFF0F
:1054B800214B282202FB05339A7F22B901F039FFDC
:1054C8001E48BDE8F8831A7F1AB901F032FF1C485C
:1054D800F7E7D3E900671B4B9D681B4BD3F80080A7
:1054E80001F027FF0021A5EB08008F4208BF864284
:1054F80015D3361A67EB0107B046B9464FF47A75EB
:10550800A8FB052312F5804005FB09334FEAD0328A
:1055180043F1000142EA414222600020D1E74FF006
:1055280000084FF00009E9E70848CAE70848C8E753
:105538000848C6E78523002090230020031000F0C8
:10554800051000F00020044080230020061000F021
:10555800021000F0041000F0F8B501F0E4FE084D68
:10556800084F2C68BE68FFF7EFFD2B689C42F8D106
:1055780001F0DFFE0022901944F10001F8BD00BFE0
:1055880030240020002004402DE910484FF47A749C
:10559800A0FB04BC1BF5804204FB01CC4CF10003CA
:1055A800D00B40EA4340BDE8108800002DE9F843DD
:1055B8001A4C01F0B8FE626AA1690A4022F005019E
:1055C80053070546216221D5154AA768154EDFF80D
:1055D8005890012111709046636A23F004036362B6
:1055E8003068381AFFF748FDFFF79CFD3846FFF78B
:1055F800BDFD3268A768636DB91A9B1A99F8002037
:105608000AB19942E8D2002388F80030FFF79CFDE0
:105618002846BDE8F84301F08CBE00BF00200440D6
:105628007C2300208023002084230020044B1B6857
:1056380000EB8000A3EBE00080F30800704700BF98
:105648003C240020174B402870B59C6824DD502866
:10565800B4BF012302231449144A154DDE00314416
:1056680003C982E80300134A324492E80300012C7C
:1056780085E8030003D10B4A4AF6E8519160012BF3
:105688000CD0022B0CD0002002F020FA012C02D101
:10569800044B00229A6070BD0023DCE70120F3E789
:1056A8000220F1E700300E4044240020842400202A
:1056B800B42400205C240020FFF7C4BF044B4FF043
:1056C8004042DA621A6B22F040421A63704700BF08
:1056D80000300E402C48F0B5002203682B4D1146CF
:1056E80054592CB11E68AC18002E36D1234601211E
:1056F8000832302AF4D101B103602549254E0B68E0
:105708000022144695592DB11F68B518002F2BD1CA
:105718002B4601240832302AF4D104B10B6000680A
:105728001D4B026842B3DA69007922F0FF02024396
:10573800DA611A6B42F0804209681A630A68164BEC
:10574800F2B1DA69097922F47F4242EA0122DA6188
:105758001A6B42F000421A63F0BD1E792779B742EE
:1057680084BF23460121C3E71F7995F804C0BC45CF
:105778003CBF2B460124CDE71A6B22F08042DBE7C1
:105788001A6B22F00042E6E77424002084240020EB
:1057980078240020B424002000300E40064B186AFC
:1057A800C0B20523C000B0FBF3F0044B1B68181A05
:1057B80000F3070040B2704700300E40402400203C
:1057C80010B5144C226B616A0A4010D5124B1B6845
:1057D8001A682AB1002119605960FFF7DFFF904766
:1057E8004FF00043E362BDE81040FFF773BF53007A
:1057F800F9D50A4B1B681A6832B100211960596043
:10580800FFF7CCFF01219047024B4FF08042DA624C
:10581800E9E700BF00300E407824002074240020FF
:10582800FFF7CEBF2D4B37B501221A700021302269
:105838002B482AF038FD302200212A482AF033FD6F
:10584800294A2A4B13602A492A4A13600A684B6D71
:10585800C2F30742FF2A02D0DBB2FF2B01D190230B
:10586800192202EB8201244803EBD1010160DB001D
:105878000521B3FBF1F31344204A01A8136002F099
:10588800ADFB9DF80530012B1BD14120FFF7CEFE63
:105898001B4C1C49207139202160FFF7C7FE0546C3
:1058A8005020FFF7C3FE184A2073157391604820F3
:1058B800A160FFF7BBFE10751161FFF76FFFFFF7DF
:1058C800C1FEFFF7FBFE114B0122C3F880211A60CD
:1058D800FFF700FF002003B030BD00BF38240020D0
:1058E80084240020B4240020742400207C24002078
:1058F800B081E00F782400203C24002040240020C0
:1059080044240020C15600005C24002000E100E08F
:1059180038B141B1013AB2F5006F044838BF0020F0
:105928007047034870470148704700BF037000F094
:10593800027000F00D490E4A0B7810B54BB9C2E958
:105948000033C2E9023301240C7042F8230000201E
:1059580010BD002352F823100029F6D08142F4D05C
:105968000133042BF6D10348F2E700BFF4240020EA
:10597800E4240020027000F038B504460D4601F01A
:10598800D2FCA28892B222B92A6001F0D2FC064861
:1059980038BD6388142202FB034308332B6001F0EF
:1059A800C8FC0020F4E700BF0B7000F038B50446CF
:1059B8000D4601F0B8FCA3889BB223B92B6001F017
:1059C800B8FC0C4838BD6388E188142202FB034305
:1059D80008332B6063885A1C92FBF1F301FB1323F5
:1059E8009BB26380A388013B9BB2A38001F0A1FC1A
:1059F8000020E7E70B7000F07FB5012380F82C301A
:105A080090F8323093B90C4A03680392002204904C
:105A180002924A680192012200920A68016980682C
:105A28001C33FFF7D7F907B05DF804FB012BEAD068
:105A3800002380F82C30F6E7916200007FB501233F
:105A480080F82D3090F8323083B9026834320D4B2B
:105A580003930023049002934B680193012300935E
:105A68000B68C1684068FFF79BF907E0012B02D17A
:105A780002682832EBE7002380F82D3007B05DF884
:105A880004FB00BF915A0000F7B5906A01A91446BB
:105A9800FFF772FF144B984220D0019B00251D612F
:105AA8009D6001F040FC019AD668074626B1D2E90C
:105AB800002329462046B04701A9A06AFFF776FFD0
:105AC800A06A83889BB263B101A9FFF755FF0199CA
:105AD8002046FFF7B3FF384601F02BFC012003B046
:105AE800F0BD84F82D30F6E70B7000F0427E3023CD
:105AF8005343044A1A44437F03EBC2039B001868CC
:105B0800C0B270471CA0104213B51D4A002352F8BA
:105B18002340617F81420ED00133042BF7D102B0BC
:105B280010BD0028FBD19DF80730002BF7D0606826
:105B3800FFF76AF9F3E794F83130022BEFD12046EA
:105B4800FFF7D4FF637D2075022BE8D194F82E303F
:105B580003F0FF02002BE2D102A9606801F8012DD1
:105B6800FFF7B2F9237D1BB194F82F30002BD8D062
:105B7800002384F82F306068FFF766F9CFE700BF8D
:105B8800E424002090F8323053B903680122DA6027
:105B98001A69D007FCD55A6F42F001025A6770475C
:105BA800012B0CD103685A6C9107FCD401225A606E
:105BB8009A68D207FCD55A6D42F001025A657047BF
:105BC80090F832303BB903685A6F22F001025A67E5
:105BD8000222DA607047012B09D103685A6C9207D8
:105BE800FCD45A6D22F001025A6502225A607047AD
:105BF80010B50446FFF79EF80021201DFFF728F88E
:105C0800014608B1044810BD04F10800FFF720F868
:105C18000028F8D0F6E700BF0E7000F0F8B504468B
:105C280017460D4601F07FFBA388E2889A42064694
:105C380005D800233B6001F07CFB1648F8BD23889B
:105C4800142202FB0343083305F1100C2A4603CA49
:105C5800624518605960154603F10803F6D11068CB
:105C680018602388E188142202FB034308333B6051
:105C780023885A1C92FBF1F301FB13239BB2238068
:105C8800A38801339BB23046A38001F052FB002069
:105C9800D4E700BF0A7000F073B504460D46C07D16
:105CA800E67E002934D001230422314601F098FF12
:105CB80001230222217F207E01F092FF94F83130E7
:105CC800022B16D100230122617F607E01F088FF3C
:105CD80000230422A07EA17F01F082FF0123627FBE
:105CE800607E01930093114601F02EFF002002B060
:105CF80070BD032BFAD100230122617F607E01F081
:105D08006FFF00230422A17FA07E01F069FFEDE769
:105D18000B460A46314601F063FF2B462A46217F8F
:105D2800207E01F05DFF94F83130022B10D12B4614
:105D38002A46617F607E01F053FF2B462A46A07EEB
:105D4800A17F01F04DFF627F607E01950123C9E7C5
:105D5800032BCBD12B462A46617F607E01F040FFA2
:105D68002B462A46CFE790F8323013B903681869F2
:105D78007047012B1CD103689B6803F00200DA0707
:105D880048BF40F00100590748BF40F008001A0713
:105D980048BF40F02000D90648BF40F040009A06AE
:105DA80048BF40F080005B0603D540F400507047C0
:105DB800002070472DE9F3410D460446002879D0AC
:105DC80001F0B1FA012D06463BD1A36A9B889BB22C
:105DD800002B3DD06068FFF757F80023A06A84F8CD
:105DE8002D3083889BB273B101A9FFF7C5FD0199D6
:105DF8006068364F0831FFF78FF8019B1F61A06A72
:105E080083889BB253BB2046FFF7ADFF8304FAD5C6
:105E1800023D012D10D8A068FFF736F80023606A0C
:105E280084F82C3083889BB23BBB94F83130032B29
:105E380002D02046FFF7C4FE304601F07AFA00206F
:105E480009E0022D38D1636A9B889BB2002BDFD111
:105E580001F06FFA1E4802B0BDE8F08101A9FFF712
:105E6800A5FD019BD3F80C80B8F1000FC7D09B6843
:105E7800002239462046C047C1E76946FFF77CFD46
:105E88000099A068114F0831FFF746F8009B1F6181
:105E9800606A83889BB2002BC7D06946FFF786FDEE
:105EA800009BDD68002DF3D09B6800223946204610
:105EB800A847EDE70748CEE7032DA9D1A36A9B8839
:105EC8009BB2002B86D1636A80E700BF097000F09F
:105ED800087000F0027000F0436A9888C0B27047FA
:105EE8002DE9F3410546406A84889846A4B2002308
:105EF8000E461746CDE900333CB16946FFF73CFD35
:105F080001A90446A868FFF707F8009971B16CB9B0
:105F18004868019BC01A3860C8F800300B683360C5
:105F28002846FFF720FF02B0BDE8F0810021C8F83D
:105F3800001039603160F3E7836A9888C0B270470F
:105F48002DE9F3410546806A84889846A4B2002367
:105F58000E461746CDE900333CB16946FFF70CFD04
:105F680001A904466868FEF7D7FF009971B16CB9BA
:105F78004868019BC01A3860C8F800300B68336065
:105F88002846FFF7F0FE02B0BDE8F0810021C8F80E
:105F9800001039603160F3E7007D70472DE9F0416A
:105FA80004460E461746FFF7B3FC804650BB082050
:105FB80001F0DEF90546A26A93889BB213B194F802
:105FC8002E3013B394F8322022BB23681D6915F0D4
:105FD800020533D0012384F83030002A3FD13744FA
:105FE800BE42206836D103699E06FCD555B994F89F
:105FF8003230002B42D123685A6F22F002025A67CE
:106008000822DA604046BDE8F081002DD4D0FEF7C2
:10601800A5FFD0E7012A1BD123689D6815F002056A
:10602800D8D1596C8807FCD404215960996889072C
:10603800FCD5596D41F002015965CBE70421D960BF
:1060480019698907FCD5596F41F002015967C1E701
:106058000025BFE716F8011B02F0FEF8C0E7012A89
:10606800D0D13744B742206803D183681907FCD5DB
:10607800BCE716F8011B01F0EEFEF3E7012BC1D1D6
:1060880023685A6C9207FCD45A6D22F002025A65B2
:1060980008225A60B6E7000010B50446B0B190F87F
:1060A8002E3033B990F83130022B0AD06068FEF7F1
:1060B800ABFE94F82E300133DBB284F82E3000208A
:1060C80010BDFFF713FD0028F3D1EFE70048F7E70D
:1060D800027000F010B50446D0B190F82E30CBB164
:1060E80090F82E30012B06D190F83130022B0AD0CF
:1060F8006068FEF7A9FE94F82E30013BDBB284F805
:106108002E30002010BDFFF7F1FC0028F3D1EFE797
:106118000148F7E70148F5E7027000F0057000F064
:1061280037B590F83150022D044618D1A37F407D31
:1061380001229A40A37E30215943134B0B4410B9D6
:1061480003F1806303E0012805D103F1C0631A60FD
:10615800002003B030BD217D0029F6D1F0E7012DE4
:10616800F6D1037D73B911238DF80730FFF794FF3B
:106178002A460DF107012046FFF710FF2046FFF7DA
:10618800A9FFE5E71323EFE70CA0004090F83130B2
:10619800032B05D00229417518BF0175FFF7C0BF51
:1061A80000487047057000F010B5044600283AD042
:1061B8000321FFF7FFFD00212046FFF7E7FF00213D
:1061C8002046FFF769FD94F8323003BB23680A22A2
:1061D800DA600021206A00F06DFD94F83130032B5D
:1061E80003D00021607FFEF715FF6068FEF77CFD95
:1061F800A068FEF779FDFEF757FD636A0020188056
:1062080058809880A36A18805880988010BD012B08
:10621800DFD1206801F00BFE23685A6C9207FCD48A
:106228000A225A60D5E70148F0E700BF027000F083
:10623800F0B587B004461646FFF76AFB0546F0B985
:10624800CDE9011604936A460E4B606A039601A9CC
:106258000593FFF7E3FC054688B994F82C3073B929
:106268002046FFF78FFC00992046FFF7C5FB94F8FE
:106278003130032B03D025752046FFF751FF284600
:1062880007B0F0BD017000F073B5506A01A914465B
:10629800FFF772FB334B98422FD094F83200019BE2
:1062A800002836D12268116C11F4007128D02E49CB
:1062B800196198604FF40073936401F034F8019900
:1062C800CD68064635B14A688B682046D31A0A68F5
:1062D8000969A84701A9606AFFF768FB606A8588B1
:1062E800ADB2002D2FD001A9FFF746FB019920463A
:1062F800FFF782FB304601F01CF8012002B070BDA8
:10630800106CC5051BD51948186199604FF4807346
:10631800D2E7012813D12268D16A11F0800106D092
:10632800114919610021996080235363C5E7D06A38
:10633800400604D50D48186199604023F5E700220E
:106348001A619A60B9E7012323752046FFF7E8FE32
:1063580094F8313084F82C50032BCBD02046FFF72B
:106368002FFCC7E70B7000F00D7000F00C7000F008
:106378002DE9F041094F04460D460FCF88B001AE14
:106388000FC697E8070086E80700002C00F0348263
:1063980045B9034E304608B0BDE8F08180050300DA
:1063A800037000F034220021204629F07CFF2046AB
:1063B800FFF7C0FA06460028ECD12B7C84F8313070
:1063C800C64A2B682360934284F8320040F07B81F0
:1063D800C34B2362C34BE3604FF440232361D5E9E9
:1063E80006230026626216805680968084F82C6008
:1063F800A3621E805E809E806B6803936B89ADF8F4
:106408001430AB89ADF81230AB7B8DF81030012118
:10641800EB7BB54884F82D6084F82F6005278DF84C
:1064280016308DF8117000F045FC0121AF4800F0DE
:1064380041FC0121206A00F03DFC01A928688DF883
:10644800046001F0CBFE28686A7A816F2B7ADFF846
:106458008CC221F4F85121F01F01114341EA0321B4
:106468008167032141672068604540F04781BB424E
:1064780016D9981F042840F25D81A3F10B00B84299
:1064880040F25A81A3F11100062840F25781A3F186
:106498001801062940F254811F2B14BFFF263E46DF
:1064A800042AE67540F24E81511F042940F24C81BE
:1064B800A2F10A01052940F24981A2F11001062939
:1064C80040F24681A2F11701072940F243811F2AB1
:1064D80014BFFF2100212176002B58D0012B56D064
:1064E800022B54D0032B52D0042B50D0052B4ED066
:1064F800062B00F03981072B00F03881082B00F0BB
:106508003781092B00F036810A2B00F035810B2BDF
:1065180000F040810C2B00F01F810D2B00F01E8134
:106528000E2B00F01D810F2B00F01C81102B00F0AA
:106538001B81112B00F01481122B00F01381132BF7
:1065480000F01281142B00F01181152B00F010813E
:10655800162B00F00F81172B00F00E81182B00F07E
:106568000D81192B00F00C811A2B00F00B811B2BCD
:1065780000F00A811C2B00F009811D2B00F0088116
:106588001E2B00F007811F2B0CBF0723FF23E37688
:10659800002A00F01381012A00F01281022A00F07B
:1065A8001181032A00F01081042A00F00F81052AC6
:1065B80000F0F880062A00F0F780072A00F0F6803D
:1065C800082A00F0F580092A00F0F4800A2A00F071
:1065D800FF800B2A00F0FE800C2A00F0DD800D2AD7
:1065E80000F0DC800E2A00F0DB800F2A00F0DA8051
:1065F800102A00F0D380112A00F0D280122A00F06D
:10660800D180132A00F0D080142A00F0CF80152AF8
:1066180000F0CE80162A00F0CD80172A00F0CC803A
:10662800182A00F0CB80192A00F0CA801A2A00F034
:10663800C9801B2A00F0C8801C2A00F0C7801D2AC8
:1066480000F0C6801E2A00F0C5801F2A14BFFF2351
:10665800002323776B7C6376AB7C6377EB7CA37634
:106668002B7DA37701212046FFF716FB064600285D
:106678007FF490AE00F057FE2F7C032F804640F049
:10668800AB802B682A8CDA675A6E42F004025A668D
:106698005A6F42F030025A6728684FF0FF3383641C
:1066A8002B7C032B0CBF0521042101F06DFD2B6809
:1066B8004FF44062DA602046FFF79AFA06464046F1
:1066C80000F037FE66E60A4A93427FF462AE094B51
:1066D8002362094BE3604FF450237FE6000001403A
:1066E8000022040001000C004041050000250A00BA
:1066F800000401400032040001000D00DFF804C16D
:1067080060457FF446AE052B7FF6CAAE981F042875
:1067180010D9A3F10B0005280ED9A3F11100062802
:106728000CD9A3F1180106290AD91F2B14BFFF267B
:106738000526B5E60126B3E60226B1E60E46AFE623
:106748003E46ADE60021C6E60121C4E60221C2E6C6
:106758000321C0E60521BEE6072318E7082316E74C
:10676800092314E70A2312E70B2310E70C230EE78B
:106778000D230CE70E230AE70F2308E7002306E79B
:10678800012304E7022302E7032300E70423FEE6CC
:106798000523FCE60623FAE608235AE7092358E707
:1067A8000A2356E70B2354E70C2352E70D2350E73F
:1067B8000E234EE70F234CE700234AE7012348E75F
:1067C800022346E7032344E7042342E7052340E77F
:1067D80006233EE707233CE7022F7FF45DAFFEF771
:1067E8000BFC607F0549FEF715FCA67526756775D5
:1067F8002046FFF795FC4FE7014ECBE5115B000003
:10680800027000F00004014090F83120012A10B510
:10681800034610D102290ED0827D8A4201D1002080
:1068280010BD997511B9FFF755FCF8E70129F6D1A4
:10683800FFF732FCF3E70148F2E700BF057000F00C
:10684800F0B587B004461646FFF762F8054600BB68
:10685800CDE9011604936A460F4BA06A039601A975
:106868000593FFF7DBF9054698B994F82D3083B9FD
:1068780000F059FDA36A9B889BB2064633B1009984
:106888002046FFF7DBF8012384F83030304600F06B
:1068980050FD284607B0F0BD017000F070B588B013
:1068A8000D220021294C2A4E04A829F0FCFC0025C1
:1068B8000223012127488DF81010CDE901550395D1
:1068C8008DF80A3000F0F6F9294601AA204601F0B1
:1068D800F2FB4FF6FF73E3618DF81250354604A9B9
:1068E800204601F095FB1C4800F0C4FA9DF81230D0
:1068F800D8400133DBB20A2B30608DF8123002D851
:10690800164B9842EBD81648164C00F0B3FA1649C5
:10691800B1FBF0F12868154A0025E1FB004500238A
:106928002046294629F0FCFA114B084A1860114BF9
:1069380000201870936923F0100393610E4B4FF4F5
:106948008062C3F880211A6008B070BD00800140E1
:10695800F8240020000204004041050080841E0045
:106968007000020020A1070000B0710B40420F0028
:10697800FC2400200025002000E100E01E4BF7B5B4
:1069880019681E4C1E4A1F4E0025E0FB0145204693
:106998002946002329F0C4FADFF86CC04FF6E85402
:1069A80000254FF6E75E4FF0FF378D4208BF84425F
:1069B80011D380B260B1144A516A89B2536A9BB24A
:1069C800ADF80630BDF806305B1A9BB29842F5D890
:1069D800002003B0F0BDDCF8242092B2DCF82430AB
:1069E8009BB2ADF80430BDF804309B1A9BB27345D6
:1069F800F4D980197941D8E7F824002020A10700AC
:106A080040420F001802FFFF00800140044BDA6883
:106A1800D20604D510225A61024B01221A7070471F
:106A280000800140002500202D4B002A70B52D4D17
:106A3800446B08BF1D462C4B14BF102600269842F5
:106A48003AD102293FD004D8B9B1012921D0002375
:106A58002DE0062931D0812935D00329F7D1234BE0
:106A68001A6819681B68120C1B0C03F0F00302F477
:106A7800FE421A43C1F3034318E01D490B680A6834
:106A880003F4FE4302F00F021A430B6803F0F0030D
:106A98000CE0174A1368116812681B0C120C02F0FC
:106AA800F00203F4FE431343C1F303421343B3401C
:106AB8002C400D4A2343536370BD0E4B1A681B6864
:106AC80002F00F02E2E7094A13681168126803F43A
:106AD800FE4301F00F010B4302F0F002E6E700BFAE
:106AE8000080FFFFFFFF0080002000401482E00FBD
:106AF8001082E00F1882E00F38B50D46022383603C
:106B0800002289780446FFF78FFF2A796878697927
:106B1800130243EA006343EA0143E97843EAC10305
:106B2800E97909B143F00053297A09B143F0040324
:106B3800A97909B143F00203697A09B143F0010365
:106B4800F32AA97806D129B903289CBF23F07063DA
:106B580043F0806348B20028ACBF43EA411343F0D6
:106B6800E00323616369002823F4F21323F0070389
:106B7800BCBF21F080010B43297843EA4143E97AFD
:106B880009B143F4804363616301640103F1844301
:106B980004F18444A97A9960F32A04F5C8640CBF07
:106BA80001230023236038BD0C4B984210D90C4BAD
:106BB800984210D9022201230A490B600A49D1F8E8
:106BC800003123F0807343EA0263C1F80031704753
:106BD80000221346F0E70122FBE700BF0048E80166
:106BE8000090D0034000C84300400E400A490B4BB8
:106BF80088425A680BD90A4988420AD902F040717A
:106C08005A6822F0407242EA01625A6070470021D5
:106C1800F6E70121F4E700BF40787D0100000E404F
:106C2800005A620238B5064C41F67133256C23646C
:106C380001F088FBFFF7DAFF0DB10023236438BDAC
:106C480000000E40044BD3F84421D20703D4D3F8F4
:106C580040211042FBD1704700400E400C4AD2F848
:106C68009030516A0B4B21F0300141F0100110B502
:106C78005162146BC0F3C31103310F2903EA0403F3
:106C880028BF0F21034343EA0173136310BD00BFFC
:106C980000400E4000F8FF0F38B5054C41F671333F
:106CA800256C2364FFF7A2FF0DB10023236438BDD0
:106CB80000000E40C0F30322013A38B50546092A00
:106CC80013D8DFE802F023131212051619121C203C
:106CD800104C0020C5F3043508B1FFF7B3FF04F1E9
:106CE800047405EBC404A400216038BD00200A4CDC
:106CF800F0E70120094CEDE71020094CEAE74FF4D2
:106D08008030084CE6E70020074CE3E70020074CFA
:106D1800E0E700BFB0400E40C0400E40E0400E40EB
:106D2800E8400E40F0400E4050410E4000400E40FA
:106D380000F00F000138072848D8DFE800F0040FFA
:106D48001947232D4735244BD3F8943003F0070314
:106D5800023B022B3CD8214AD05C70471E4BD3F82B
:106D6800803003F00703013B032B33D81C4AF3E7B9
:106D7800194BD3F8843003F00703013B032B29D8C0
:106D8800184AE9E7144BD3F8883003F00703013BAE
:106D9800032B1FD8144ADFE70F4B1B6F13F0010FAB
:106DA80014BF0920072070470B4BD3F85C3103F060
:106DB8003003202B06D0302B06D0102B0CBF072019
:106DC8000120704704207047082070470020704752
:106DD800052070470120704700400E409C050300C5
:106DE8009F050300A30503009F05030008B501469E
:106DF800FFF79EFF1B4B994211D01B4B994212D0B3
:106E08001A4B994204D11A4BD3F8800000F00700BE
:106E18000138032824D8DFE800F00A0E1612144BB4
:106E2800D3F88400F2E7124BD3F88800EEE7BDE808
:106E3800084001F0FDBABDE8084001F0FFBABDE81E
:106E4800084001F0F8BA01F0A5FA094BD3F800316F
:106E5800C3F300635A1C01239340B0FBF3F008BD51
:106E68000020FCE7030020000500240002001E00AB
:106E780000400E4000F47810B0F5801F08B500F00F
:106E8800828016D8B0F5802F35D005D868B1B0F516
:106E9800003F3BD0002008BDB0F5402F3CD0B0F5F6
:106EA800602F5CD0B0F5202FF4D1BDE8084001F088
:106EB8004DBAB0F5F01F37D012D8B0F5B01F38D0A2
:106EC800B0F5D01F40D0B0F5A01FE3D13448FFF78C
:106ED8008DFF344BD3F8303103F00F03D840DAE795
:106EE800B0F5101F39D0B0F5481F3FD0B0F5001FDE
:106EF800D0D12D4819E001F029FA2A4BD3F80C31EA
:106F0800C3F308230133B0FBF3F0C4E701F01EFA22
:106F1800244BD3F80831F3E701F018FA214BD3F8E2
:106F28001431C3F30423EDE72048BDE80840FFF718
:106F38005DBF1E48FFF75AFF1A4BD3F8202102F015
:106F48000F0201239340DEE71748FFF74FFF154B69
:106F5800D3F8282102F00302F3E71148E5E71448C3
:106F6800FFF7E6FE07280ED009289DE71148FFF72E
:106F7800DFFE072807D0082808D004288AD1BDE8F2
:106F8800084001F019BA0C4B186884E701F0DEF9E3
:106F9800044BD3F80031C3F3042303FB00007AE762
:106FA8000500240000400E400300200002001E00DF
:106FB80006000E00B80032003C1C00200E4B5A6A36
:106FC80012F0300F04D0202913D0302900D011B985
:106FD8004FF4400200E0094AD3F8901032EA010168
:106FE800FAD1520246BFD3F8A000C0F38020012096
:106FF80070474FF40002EFE700400E40FF03E1073F
:1070080002280AD129B1064B4FF48060C3F8A800C2
:10701800596612B10220FFF7D1BF0120704700BFA7
:1070280000400E40F8B504284ED8DFE800F00A0307
:10703800116D7200802640240623072500294FD0B1
:1070480046E04FF400764FF4807408230925F5E7ED
:10705800002942D0314C636A13F0300F35D1636A8E
:10706800DB0705D5636A23F0300343F0100363623E
:10707800042402230325294E3466294E33449B00F9
:107088001F68002FFCD0FAB13544AD002B68002BE7
:10709800FCD0022818D1B9B1204E716A11F0010153
:1070A80018D001222021FFF7ABFFD6F89C700122EF
:1070B80000210220FFF7B6FFC7F30A00FFF7CEFD55
:1070C80034662B68002BFCD0F8BD0424022303256A
:1070D8000021D0E7FFF772FFE7E708260223032520
:1070E8000E4901200E6600FA03F3D1F89000184209
:1070F800FBD1002AE8D00123084A03FA05F5D2F8A3
:1071080090302B42FBD1DFE70124022600232546DD
:1071180094E720261024042305258FE700400E401D
:107128008004F21000F00F00013810B5072842D88B
:10713800DFE800F00F043D413B5B4166494C0139F3
:10714800092938D8DFE801F04F383F373746373755
:107158003735023903292ED8DFE801F02402181E3A
:107168000120032401221146FFF75CFFFFF75AFDB7
:107178003D4B3E485C67FFF77DFEFFF715FD01F0CC
:1071880009F90021BDE81040FFF786BD3848FFF730
:107198000BFD02200446E5E73548FFF705FD01240D
:1071A8000320DFE700200424DCE7324CC7E7324C39
:1071B800C5E70423236010BD012211460020FFF714
:1071C80031FF0223F6E7012211461046FFF72AFF96
:1071D8000123EFE701F0DEF8FFF7E6FC274B012279
:1071E8001A600323E6E70023E4E7072904D0092906
:1071F800E1D11D4B012201E01B4B00221A67DAE79F
:1072080001390729D7D801A353F821F06772000084
:10721800BF710000BF71000059720000BF7100000B
:10722800BF7100004B7200003572000003220E4946
:10723800D1F85C3123F0300343EA0213C1F85C3122
:10724800B9E7012211460420FFF7ECFE0122EEE720
:10725800012211460220FFF7E5FE0222E7E700229D
:10726800E5E700BF80400E4000400E4000050A00E0
:107278000148E80188400E4084400E400016C8438B
:1072880010B504461120FFF753FD0122002102200A
:10729800FFF7C8FE1A4A217C536A23F0010302292A
:1072A80008BF43F001035362164B21781960936AB3
:1072B800E17A23F007030B439362A188637A43EAD8
:1072C800C123D362136BA07A217A03F07F6303434F
:1072D800E08843EAC02343EAC11303310F2928BFDA
:1072E8000F2143EA01731363A37B617B1B0143EA0C
:1072F8000133E17B0B43217B43EA0143536310BD18
:1073080000400E40A004C843EFF3108072B67047E7
:1073180000B962B67047602383F311887047002371
:1073280083F311887047EFF31180602383F311888A
:10733800704780F311887047EFF31083DB0706D49A
:10734800EFF311805F2894BF0020012070470120CF
:10735800704700004109054A00F01F0352F8210058
:10736800D840C04300F00100704700BF00E100E0D2
:1073780010B50446EFF31083DB0733D4FFF7EAFFB9
:1073880000282ED1002CA7BF04F1604404F5614405
:1073980004F00F04144BACBF94F800231A5D520993
:1073A800EFF3118313B1B2EB531F1BD20F4C636879
:1073B800C3F30803ABB1103BDBB259B20029B5BF28
:1073C80003F00F0301F16043043B03F56143B6BFCB
:1073D8001B1993F80003187E4009824234BF00202D
:1073E800012010BD0120FCE714ED00E000ED00E0F5
:1073F8001848194BC26C1B88C2F303222833013288
:1074080002EB820103EB5303B3FBF1F3C16C013BC5
:10741800072B21F0EE6128BF072341F4801141EAD0
:107428000363C3640D4BB3F90030002B10DB283322
:10743800510801EB420203EB5303B3FBF2F3026D75
:10744800072B28BF072322F0700242EA03130365C3
:10745800704700BF00300E400A2500200C25002090
:10746800084B1A78013A012A0BD8074A126C02F025
:107478000302012A03D105490A68D203FCD5032275
:107488001A7070471425002000300E407C300E40E2
:10749800054A064BD16C1960D36C23F47F4343F43F
:1074A800EE43D364FFF7A4BF00300E401025002040
:1074B80008B5054BD3F89020044B11201A60FFF74C
:1074C80037FC034B187008BD00400E40042500200F
:1074D80015250020114A38B545F60E03104CD2F890
:1074E8008051C2F88031216821F0AA01C905C90D6F
:1074F80011660C4A1178052902D01120FFF712FEF7
:107508002368DA075EBF054B02221A66EB0742BF03
:10751800024B0022C3F8802138BD00BF00400E4056
:10752800042500201525002010B5044608B1FFF7F2
:10753800BFFF0C4A136943F004031361FFF7A8FF68
:10754800FFF78EFF30BF084B1A68084BDA64FFF765
:107558004FFF1CB1BDE81040FFF7BCBFBDE81040AD
:1075680000F018BF00ED00E01025002000300E40AC
:1075780010B5044608B1FFF79BFF144BD3F88021E0
:1075880045F60E01D207C3F8801148BF00224FF418
:107598002071196648BFC3F880210D4A136943F06A
:1075A80004031361FFF774FFFFF75AFF30BF094B5D
:1075B8001A68094BDA64FFF71BFF1CB1BDE81040DD
:1075C800FFF788BFBDE8104000F0E4BE00400E4061
:1075D80000ED00E01025002000300E400378002B5D
:1075E800437870B50E4C14BF04260026002B837810
:1075F800A16914BF02250025002B037921F03F0162
:1076080043EA0103C17814BF08220022012908BFF8
:1076180043F0010333432B431343A36170BD00BF01
:1076280000300E40134B9A6FD207FCD41B6C13F03A
:1076380003031EBF104A01211160834203D108B918
:107648000D4B1860704723B9012802BF0B4B02226B
:107658001A70084A1146936FDB07FCD4136C23F0A9
:107668000303034313648B6FDB07FCD4003018BF9C
:107678000120E5E700300E40B40AC6431425002077
:1076880070B51D4D4AF6E852AC69AE69AA60A869A2
:1076980024F4403410F0010044F4003446F4403639
:1076A80007D12B6C03F00303013B012B01D8FFF733
:1076B800B9FFAB69DB070FD572B6104B4AF6E85233
:1076C8001A600F4A136843F080031360A2F58872AA
:1076D800136843F480731360FFF7DAFEFFF7C0FE08
:1076E800054B9C619E619C619E619C619E619C6151
:1076F8009E619C6170BD00BF00300E4090310E400D
:1077080098310E40A0F5E163B3F5966F2DE9F04787
:1077180003D900210846BDE8F0875F4C5F4BD4F8D9
:107728006851DB6CB0F5E16F1FBF4FEA156AC5F30E
:1077380007484FF496694FF4E16701BFC5F3072A7C
:107748005FFA85F84FF416794FF49667B0F5E1665D
:10775800C3F3017C18BF012646EA0C2E40F2011340
:107768009E455BD0BEF5817F09D2BEF1010F1BD0CB
:107778005DD3BEF5807F5DD000252B4619E040F231
:1077880001239E4550D005D8BEF5007FF4D1D4F82A
:1077980070310BE0BEF5407F4FD040F201339E457B
:1077A800EAD1D4F878313BE0D4F87431C3F3072533
:1077B800DBB2C71BAAEB080E07FB0EFEBEFBF9FEE9
:1077C800C644D645A5D8A5EB030807FB08F7B7FBC1
:1077D800F9F73B44AB424FF000079AD882B1DFF883
:1077E800BC80D8F85C5025F4FE4525F00205B0F5BC
:1077F800E16F45EA0E2518BF02273D43C8F85C50E3
:10780800002946D0226DD2B2032A19D8B0F5E16F0B
:10781800D4F87C211FD0C2F307221DE0D4F87431BC
:107828001D0EC3F30743C4E7D4F87831BEE7D4F894
:107838006C31BBE7D4F86C31F2E7D4F87031EFE77C
:10784800BCF1020FD4F880211ED0BCF1030F1ED06A
:10785800BCF1010FDFD0D2B2120312F4702F7FF403
:1078680058AF0E4CE06E20F470400243E266626E40
:1078780022F4FF72E72B22F0010228BFE7233243EC
:1078880042EA4303636645E7C2F30742E4E7120EA0
:10789800E2E701213EE700BFB081E00F00300E4073
:1078A800194B1A6FD96CC90702F0070214D5012ABF
:1078B80012D9132823D9143813288CBF102308236E
:1078C8001148013BC26C190322F47F4241EA0323A9
:1078D8001343C364FFF78CBDDB6CD90706D4012AB8
:1078E80004D809280BD90A380928E6E7064BDB6CC7
:1078F80013F00103E4D0012A03D82728DDE7042385
:10790800DEE70023DCE700BF00300E40054A064BE7
:107918001B68136F23F007031843044B106718887C
:10792800FFF7BEBF00300E408009C643082500207F
:10793800534B37B502229A639B6B03F00F039342B4
:10794800054603D00024204603B030BD4D4BD3F884
:107958006C3101331DD04C4B1A68043B1B681A600C
:107968004A4B1A68043B1B681A60494B1A68043B67
:107978001B681A60474B1A68043B1B681A60464B21
:107988001A68043B1B681A60444B1A68043B1B685E
:107998001A60E988B5F90C004A2965D9B1F5FA7F6A
:1079A80064D340F6C313994294BF4FF000514FF08F
:1079B8004051334CE36C23F0405323F0010300287B
:1079C800A8BF43F001030B43E364E36E43F0807305
:1079D800E366334B186800B10420FFF797FF236E66
:1079E80023F0C0432366E36C43F0060301A8E36475
:1079F80000F0F4FA9DF80500012812D19DF8043032
:107A0800022B0ED827490B785BB9274A136843F035
:107A180001031360236E254A1A40254B134323663E
:107A28000870244B29891980234BB5F90C201A803A
:107A3800224BA8881880FFF733FFAB7BCBB1012B13
:107A48001BD0012211466888FFF75CFE0446002817
:107A58003FF478AFAB7A1A4A6878003318BF01232D
:107A68001360FFF7DFFD6EE70021A2E74FF08051BA
:107A78009FE7034B134A9A65E3E7014B124AFAE77B
:107A880000300E40B081E00F3C80E00F4480E00FF2
:107A98004C80E00F5480E00F5C80E00F6480E00FC2
:107AA8008009C6431425002044300E40000F0EF014
:107AB800B4C0400B0A2500200C2500200825002012
:107AC8009407C64377402057372110B7144B1A68DC
:107AD80030B5002814BF02250025012A06BF4AF642
:107AE800E8511960002202280E4804680CBF24F0EF
:107AF800740444F0740404600B48046844F00804F7
:107B080004600A4C216821F4406141EA8521216022
:107B1800016821F0080101600AB100221A6030BD35
:107B280090310E4064310E409C310E403C400E4076
:107B3800044AD2F8443423F003031843C2F8440437
:107B4800704700BF00A00040072A70B501F003018C
:107B58004FF00F0523D896001A4CB540256004F164
:107B68000074B04020600320B04001FA06F61649C0
:107B7800086001F100710E601449114489000B601E
:107B88009DF81030C1F88030012303FA02F2104B3F
:107B9800C3F824249DF81430C1F8003370BDA2F155
:107BA8000804A4000B4EA54035600B4DA04028608A
:107BB8000320A04001FA04F40849086001F10071AB
:107BC8000C60D9E700A4004408A400448020851074
:107BD80000A0004004A4004404A400460CA40044EF
:107BE800F0B54AB130261E4C012546438D40344439
:107BF8000BB304F1C06425603024444304F180448D
:107C0800072904F5204419D865688E000F27B74066
:107C180025EA070502FA06F63543656052B90122DE
:107C280002FA01F1302250430D4A0244A3B102F195
:107C3800C0621160F0BD04F18064DCE701F18045A9
:107C4800083DA668AD000F27AF4026EA070602FAEE
:107C580005F53543A560E1E702F18062E9E700BF79
:107C68000CA00040074B4FF48072C3F88020BFF38C
:107C78004F8FBFF36F8F044B04480021D9661962F8
:107C8800FFF718B800E100E000200E4000450A00A8
:107C9800034B03449B0081F001011960704700BF4A
:107CA800A001F11010B5044601211148FFF702F8B0
:107CB800B4F8013022785BBA9BB243EA02630D4AFA
:107CC800136000231362D36253634FF00043D366FB
:107CD8004FF0FF339366084A4FF48071C2F8801161
:107CE800E3785B01DBB282F80833116010BD00BF96
:107CF80000450A0000200E4000E100E02DE9F041B7
:107D0800254D91F80BE091F80AC00F7B0C464FF017
:107D18003008C3B2012608FB00509E402368497B07
:107D2800C0F880304FEA0E5343EA0C4343EA475306
:107D380022F00302C0F88810C0F88430C0F89820F8
:107D4800AE66FFF7F0FAEB6E3343EB66237A13B1B6
:107D58006B6B33436B63637A13B1EB6A3343EB6248
:107D680022792B6822B1D243120262F47F42134077
:107D780062790AB143EA0223A2790AB123EA02032B
:107D8800E27902B11343044A1360044B1E60D663C0
:107D9800BDE8F041FFF7CDBA00200E4028200E4480
:107DA80010B5C0B201248440FFF7BDFA054AD36E6E
:107DB80023EA0403D366044B1C60BDE81040FFF7B8
:107DC800B8BA00BF00200E4020200E44F8B5C3B258
:107DD80001259D400446FFF7A6FA0A4B30221E6E85
:107DE8009F6A02FB0434D4F88C40FFF7A2FA3D42A4
:107DF80006D1C4F30A1008B9354200D10130F8BDE4
:107E08000020FCE700200E40036CDB0702D4436C23
:107E18000B42FCD17047CB435B0003F00A0310B55B
:107E280041EA03020221FFF7EFFF426010BD436CF5
:107E3800002BFCD101220264EA22426040F2F9726E
:107E48000360C3600361436183634263C363436543
:107E580083650364704710B502460C469368DB06D9
:107E6800FCD540211046FFF7CFFF946210BD0000FB
:107E7800044B41F671321A649A6822F001029A6042
:107E8800704700BF00000E40034B9A6822F00102C1
:107E98009A6000221A64704700000E4010B590FAEC
:107EA800A0F2054C2368B2FA82F223EA000091405E
:107EB8000143216010BD00BF00500E40014B01225C
:107EC8009A60704700500E40194BF0B55C68194D28
:107ED800194E1A4F00231846D6F800C0EA181CF0AD
:107EE800040F51685A5908D1B2F5806F03D018D8D9
:107EF800B2F5007F01D141F48071D7F800C01CF4BD
:107F0800807F18BF21F01C01144202D0214208BF13
:107F180010430833482BDFD1C30348BF20F01C00AF
:107F2800F0BDB2F5006FE6D0B2F5803FE2E700BFE2
:107F380000500E40A8050300E841E00F88300E40CD
:107F48008B784A789B0143EA82030A781343CA78FC
:107F580043EA02130A7943EAC2234A7943EA02331D
:107F68008A79043043EA42430001014A13507047BA
:107F780000200440427801790378002A827870B59D
:107F880014BF04260026002AC27814BF1025002535
:107F9800002A42794FEA023242EA012242EA030207
:107FA800837914BF20240024002BC37942EA0343B9
:107FB80043EA0603027A43EA050314BF4FF400417B
:107FC80000212343002A14BF4FF4003200220B4340
:107FD8001343014A136070BD002004400B4A5369E3
:107FE80011699B0003F03C03C1F381110B438370BB
:107FF800136903F03F0343709369D26903F0F003F8
:10800800C2F3031213430370704700BFD0FF0FE0A1
:108018002DE9F04F0C780CB902234360002343622A
:108028004B78CA7891F802B08D7A91F808A091F847
:10803800069091F80780002B4B7A4FEA024214BF52
:108048004FF0400E4FF0000E42EA0B62002B14BFB7
:108058008023002342EA0A02002DCD7A42EA8922CF
:1080680014BF4FF0200C4FF0000C42EA0822002DFC
:108078000D7B42EA0E0214BF102700271343002D80
:108088000D79497943EA0C0314BF082600263B43BF
:10809800002D14BF4FF4005500253343002914BFA9
:1080A8004FF0805100212B430B4303600CB1012397
:1080B8004360BDE8F08FF0B5537814781B0643EAA7
:1080C800846394792343947843EA0443D47843EA55
:1080D8000433147943EA8423547943EA0423D47992
:1080E800002C147A14BF4FF080470027002C547AD4
:1080F80014BF4FF000560026002C947AD27A43EA37
:10810800027343EA070314BF102500253343002CEC
:1081180001F1060114BF042400242B430901234361
:108128004350F0BD70B5054616461C4619B91448AB
:10813800FEF7A0FE0146202C08D001D8ECB170BD96
:10814800402C18D0602CFAD1042200E0082206FB4B
:1081580002F35A0802EB4112B2FBF3F2094B203A40
:1081680003EAC2022B6823F060032B602B681C43D0
:108178002C606A61E3E70622E9E71022E7E700BF1F
:1081880040410500F8FF7F00CB435B0003F00A0382
:10819800C360C1607047000040F6AA63C36041F243
:1081A80005020023036042600A4A83604361C36496
:1081B8008264094A03669042436702F580628367D6
:1081C800C36701D0904200D103659042836508BF20
:1081D800C3657047F9FF01000000014038B5054646
:1081E8000C46FFF7D9FF8B7C1BB1036843F0804333
:1081F8000360E37C1BB1237D43F08003AB65228AD7
:10820800637B1343E28913436B60D4E90112237B38
:108218002846FFF787FF637D1BB12B6843F4803343
:108228002B60A37DE27D1B07120502F4E00203F038
:10823800E04313432B666B6F23F030036B676A6F61
:10824800237E13436B672378EB6038BD03691B06F5
:10825800FCD5C069C0B2704703695B06FCD54163B1
:1082680070470368DB060FD447F231538268D207A0
:1082780001D5013BFAD1036803F001038B421EBF0D
:1082880000F104704001016070470368D90707D501
:1082980083689A0704D48368DB07FCD4012343600E
:1082A80070474B78CA78002B8B782DE9F04114BFC2
:1082B8004FF0020E4FF0000E002B14BF04230023D2
:1082C800002A0A7991F807800C7814BF4FF0080C3F
:1082D8004FF0000C002A4A7914BF20270027002AF3
:1082E8008A7914BF40260026002A0A7A4FEA022219
:1082F80042EA083291F8098042EA0402CC7A897A83
:1083080042EA084242EA016242EA0E0243EA0203F2
:1083180043EA0C0343EA070314BF1025002533433F
:10832800002C14BF4FF0004400242B43234347F292
:1083380031528168C90701D5013AFAD10360BDE815
:10834800F08100000048704700F049020D4AD2F859
:10835800943003F00703032B11D0042B03D0022B16
:108368000BD1094B00E0094B1868D2F80031C3F370
:1083780004230133B0FBF3F07047054BF4E74FF4E7
:108388000040F2E700400E40441C00204C1C002036
:10839800481C002008B5FFF7D9FF054BD3F8083172
:1083A800C3F308230133B0FBF3F0024B186008BD98
:1083B80000400E40401C0020014B1868704700BF69
:1083C800441C0020054B1860054BD3F8943003F08B
:1083D8000703022B01D1FFF7DDBF7047441C0020C3
:1083E80000400E400E4B0F4A9A60D3F8882042F4A2
:1083F8007002C3F888200C4B5A6D42F400525A653B
:108408001A6C22F003021A64084A136823F0010365
:10841800136052F8143C23F0805342F8143C704720
:1084280000ED00E00042000000300E4074300E40C5
:108438004FF4004070474FF47A707047014B18684A
:10844800704700BF4C1C002008B50C4B198A40F639
:10845800A73291420AD11B8B1B0A012B0CD1012890
:108468000AD840F2022019F05FFC05E040F6280324
:108478001B689B69DB02F2D4012008BD00000000E4
:10848800094B198A40F6A732914206D11B8B1B0A69
:10849800012B07D04FF6FF70704740F628031B6882
:1084A8005889704700F002B800000000054B198A8F
:1084B80040F6A732914217BF40F62803588B1B6835
:1084C800588970470000000070B51038C6B0EE2813
:1084D80001F28186DFE810F07B0369037F0E7F0ECF
:1084E800D109B803C303320341037F0E04047F0E8E
:1084F8007F0E30043401A302B9020C014C037F0E35
:108508007F0EB7077F0E7F0ECF01FC01150C840C80
:10851800440C210C020C710CB10C7F0E7F0EDC0494
:10852800620696016B050005C6054106F3057F0E38
:108538007F0E7F0E7F0E7F0EA9039B05E7047F0E3B
:108548007F0E7F0E7F0E7F0E7F0E7F0E4301870109
:108558006E017F0E7F0E7F0E7F0E7F0E7F0E7F0EC9
:108568007F0E7F0E7F0E7F0E7F0E7F0E00073B046F
:108578009106AB064D046204C704AE047F0E98044E
:10858800E9067F0E8108E709010AFC082009C708E7
:10859800490A80097F0E5C0ACA0B5009260A9D0AFF
:1085A800910AE208CC08800A7F0EA3012703300253
:1085B8007F0E7F0ECA0683047F0E7F0E3905230DBA
:1085C800C00C420D5A0D360D4E0DE40CFA0CCC0CB5
:1085D8000D0DD80C7F0E7F0E7F0E7F0E7F0E7F0E47
:1085E8007F0E7F0E2B067F0E7F0EE003CE037F0EDD
:1085F800EF007F0E7F0E660D7F0EA00D640EE80D56
:108608001E0E360EC60D7F0EB80ADA0A7F0E7F0ED2
:108618007F0E7F0E7F0EA008030EBB08C907040853
:10862800680838087F0E7F0E7F0E76072D077F0EAD
:10863800BC07FB0751072708470B66027D02980213
:108648007F0E7F0EF90A7F0E300B570B7F0E7F0EC1
:108658007F0E7F0EA7094A08F2035B027F0E2001F6
:108668002C0895078907E307EF0739074507A1078E
:10867800AC07B30BCF0BEB0BDF0BA30B9E0B7F0EE3
:108688007F0E7F0E7F0E7F0E2A0E7F0E830D7F0ECC
:10869800470E580EB30DBA067F0E7F0E7F0E740478
:1086A800DD067F0E7F0E5E03F2021503DD02C402B3
:1086B8007F0E11021A0712AB01930AAB00930CAAA2
:1086C80024ABC94901201BF011FDBDF848309DF8C5
:1086D80028202499BDF830000FF05EFB46AAC34954
:1086E80002F8EC0D00201BF001FD012046B070BD22
:1086F80024AB0CAABE4901201BF0F8FC24999DF874
:10870800300016F04DFC46AAB84902F8D00D0020FA
:108718001BF0ECFC0120E9E70CAB24AAB5490120C9
:108728001BF0E4FC9DF83010249807F05BFA46AA89
:10873800AE4902F8D00D00201BF0D8FC0120D5E787
:1087480024A81BF0A9FA24A809F03AFC46AAA749CC
:1087580002F8D00D00201BF0C9FC0120C6E70CAAC6
:10876800A24901201BF0C2FC24A99DF8300016F094
:1087780015FC46AA9D4902F8D00D00201BF0B6FC56
:1087880024A908201BF072FA9DF898001BF036FA0D
:10879800BDF89A001BF042FA9DF89C001BF02EFAD7
:1087A8009DF89D001BF02AFA9DF89E001BF026FA02
:1087B80001209BE786230BAA8C498DF848300120BD
:1087C8001BF094FC24A99DF82C0016F0ECFB46AA9B
:1087D80012AB02F8E80D88490093002024AB1BF087
:1087E80085FC012082E724A80FF082FE46AA7F4973
:1087F80002F8D00D00201BF079FC24A81BF03FFCE8
:10880800012073E724A80FF06FFE46AA24AB02F8F4
:10881800D00D7A4900201BF069FC012066E70CAAFC
:10882800724901201BF062FC24A99DF8300011F068
:108838001BF946AA6D4902F8D00D00201BF056FC22
:10884800BDF890001BF0EAF99DF892001BF0D6F9EC
:108858009DF893001BF0D2F99DF894001BF0CEF917
:108868009DF895001BF0CAF908200DF196011BF040
:10887800FDF901203AE724A912A816F055FB46AAEB
:1088880012AB02F8E80D5D4900201BF02FFC24A96B
:1088980008201BF0EBF9BDF898001BF0BFF99DF814
:1088A8009A001BF0ABF99DF89B001BF0A7F99DF807
:1088B8009C001BF0A3F9BDF89E001BF0AFF99DF8D2
:1088C800A0001BF09BF929981BF0BCF901200DE7CB
:1088D80012AC0823214624A88DF8303016F04CFB42
:1088E80046AA0CAB02F8EC0D454900930020019410
:1088F80024AB1BF0FBFB0120F8E60CAA3B49012046
:108908001BF0F4FB24A99DF8300007F01BFA46AAD7
:10891800364902F8D00D00201BF0E8FB9DF89000C6
:108928001BF06CF99DF891001BF068F99DF8920016
:108938001BF064F90120D9E60CAA2C4901201BF090
:10894800D5FB24A99DF8300010F048F846AA27491D
:1089580002F8D00D00201BF0C9FBBDF890001BF0F9
:108968005DF9BDF892001BF059F99DF894001BF0D1
:1089780045F99DF895001BF041F99DF896001BF00C
:108988003DF99DF897001BF039F90120AEE616F085
:1089980071FA46AA154902F8880D00201BF0A6FBBB
:1089A8000120A3E60BAA1149012012AC1BF09EFB83
:1089B800224624A99DF82C0016F05EFA46AA24AB9C
:1089C80002F8E80D0F49009400201BF08FFB0120EE
:1089D8008CE616F055FA46AA044902F8880D0020DC
:1089E8001BF084FB012081E6300603007A060300B1
:1089F80035060300520603009D1303004E060300CC
:108A0800380603003C06030016F038FA46AAC049A7
:108A180002F8880D00201BF069FB012066E60CAA0D
:108A2800BB4901201BF062FB24A81BF035F924A9DF
:108A38009DF8300009F0CCFB46AAB54902F8D00DE4
:108A480000201BF053FB012050E60AF0F7F946AA74
:108A5800AF4902F8880D00201BF048FB012045E6CD
:108A680012AB00930BAA0CABAA4901201BF03EFBEA
:108A78009DF848209DF830109DF82C0012F0D0FE8B
:108A880046AAA34902F8880D00201BF02FFB0120FD
:108A98002CE612AB0CAAA04901201BF027FB9DF97C
:108AA80048109DF8300012F0B9FE46AA984902F81D
:108AB800880D00201BF01AFB012017E612AB029369
:108AC8000CAB01930BAB00930DF126020AAB934953
:108AD80001201BF00BFB9DF848409DF930309DF8B4
:108AE8002C209DF828109DF82600009412F092FE84
:108AF80046AA874902F8880D00201BF0F7FA0120E2
:108B0800F4E512AA824901201BF0F0FA9DF848000A
:108B180012F082FE46AA7E4902F8880D00201BF05A
:108B2800E5FA0120E2E510F091FF46AA784902F83B
:108B3800880D00201BF0DAFA0120D7E524A81BF0E5
:108B48002BF924A809F0A8FB46AA714902F8D00D10
:108B580000201BF0CBFA0120C8E507F0B9F846AAB7
:108B68006B4902F8880D00201BF0C0FA0120BDE512
:108B780012AA674901201BF0B9FA9DF8480008F0CD
:108B880045FC46AA624902F8880D00201BF0AEFA9F
:108B98000120ABE518F0ABFF46AA5D4902F8880D45
:108BA80000201BF0A3FA0120A0E512AA58490120D1
:108BB8001BF09CFA9DF8480016F0C1FD46AA5449DE
:108BC80002F8880D00201BF091FA01208EE50AAB0F
:108BD80004930DF12603039309AB029324AB01938D
:108BE80012AB00930DF122020CAB4D4901201BF092
:108BF8007DFA9DF8284002949DF8264001949DF83E
:108C08002440BDF89030BDF84820BDF830109DF8DC
:108C18002200009418F010FF46AA3D4902F8EC0D16
:108C280000201BF063FA012060E524A81BF034FA49
:108C380024A80FF05BFC46AA354902F8D00D0020A5
:108C48001BF054FA012051E524AA012035491BF0F4
:108C58004DFA354BBDF890201A80012046E524AA2C
:108C6800012030491BF042FA304BBDF890201A80A1
:108C780001203BE512AA264901201BF037FA9DF88E
:108C8800480008F00DFD46AA214902F8880D002089
:108C98001BF02CFA012029E512AA254901201BF016
:108CA80025FA9DF9480007F08DF846AA184902F8F8
:108CB800880D00201BF01AFA012017E512AA1449A2
:108CC80001201BF013FA9DF8480016F0D1F846AAC7
:108CD8000F4902F8880D00201BF008FA012005E56D
:108CE8000CAB00930BAA24AB124901201BF0FEF930
:108CF8009DF8302024999DF82C0006F069FC46AABE
:108D0800034902F8D00D00201BF0F0F90120EDE432
:108D18007A0603004D0603004006030043060300DD
:108D2800490603003A060300FC1F00200220002029
:108D3800D21303005106030006F00AFD46AABF49F4
:108D480002F8880D00201BF0D1F90120CEE412AA08
:108D5800BA4901201BF0CAF99DF848000EF0FFFB44
:108D680046AAB64902F8880D00201BF0BFF9012079
:108D7800BCE408230CAAB1498DF8483001201BF047
:108D8800B5F924A99DF830000FF054F9002012AB72
:108D980024AAAB491BF0AAF90120A7E412AAA74903
:108DA80001201BF0A3F99DF848000FF05BF946AAD3
:108DB800A44922F8880D00201BF098F9012095E4B9
:108DC80024A808F0C9F846AA9C4902F8D00D00204A
:108DD8001BF08CF924A81AF0A6FF012086E446AB04
:108DE800082203F8E82D964924AA01201BF07EF9F1
:108DF80024A80FF03BFA46AA904902F8D00D0020AB
:108E08001BF074F9012071E40CAA8C4901201BF0B5
:108E18006DF924A99DF8300016F058F846AA87493C
:108E280002F8D00D00201BF061F924A81AF068FFA1
:108E380001205BE4082312AA82498DF83030012012
:108E48001BF054F924A9BDF8480007F0FBF846AA1E
:108E58000CAB02F8EC0D7C490093002024AB1BF00E
:108E680045F9012042E446AB082203F8E82D74498D
:108E780024AA01201BF03AF924A807F0C7F846AA4B
:108E8800704922F8D00D00201BF030F901202DE4A4
:108E98000DF07EF946AA694902F8880D00201BF0FA
:108EA80025F9012022E40CAB009324AA0BAB6749F7
:108EB80001201BF01BF99DF830209DF82C10BDF8FF
:108EC800900015F055FA46AA5C4902F8D00D00202A
:108ED8001BF00CF9012009E408AB0BAA5C490093CC
:108EE80001200CAB1BF002F924A81AF0F1FE09AB23
:108EF80012AACDE9003202930DF121020DF12203ED
:108F0800544901201BF0F2F8129B03939DF824307A
:108F180002939DF8223001930AAC9DF821309DF808
:108F28002020BDF830100093BDF82C00049424AB29
:108F380015F038FF46AA234602F8F20D46490020EC
:108F48001BF0D4F80120FFF7D1BB08238DF821309E
:108F58008DF826300DF1220302930BAB01930DF12E
:108F68002103009308AA12AB3C4901200AAE0CADBC
:108F780024AC1BF0BBF89DF82230BDF82C209DF8DE
:108F88002000029612A90195009415F07BFF46AACD
:108F98000DF1260302F8F40D304900930020CDE9C5
:108FA800015623461BF0A2F80120FFF79FBB0CAA2D
:108FB800244901201BF09AF824A81AF089FE0DF123
:108FC800260312AACDE9003202930DF1220209AB61
:108FD800204901201BF08AF8129901910BAC9DF8E9
:108FE80026109DF824309DF822200091BDF830000D
:108FF800029424A915F07EFE46AA234602F8F00D35
:10900800154900201BF072F80120FFF76FBB0CAB6D
:1090180024AA134901201BF069F89DF83010BDF807
:1090280090000AF061FA46AA044902F8D00D00201F
:109038001BF05CF80120FFF759BB00BF7A0603005C
:109048002F2803003A0603009D130300550603006A
:1090580059060300630603004E0603005D0603007D
:109068005F06030024A81AF033FE0AAB12AACDE962
:10907800013203930DF1260300930DF1220209AB8F
:10908800C44901201BF032F8129801900CAC9DF8ED
:1090980028009DF826309DF824209DF82210009085
:1090A800029424A815F032FE46AA234602F8EC0DD5
:1090B800B94900201BF01AF80120FFF717BB24A8B4
:1090C8001AF006FE0DF1260312AACDE90332059324
:1090D80009AB02930DF1220301930CAB009308AA8C
:1090E8000DF12103AD4901201BF000F812980390FF
:1090F8009DF8260002909DF8240001900BAC9DF885
:109108002200BDF830309DF821209DF820100090F5
:10911800049424A815F012FE46AA234602F8F00D7E
:109128009D4900201AF0E2FF0120FFF7DFBA0CAAE0
:10913800009224AB9A4901201AF0D8FF24999DF88F
:10914800300015F0EEFD46AA964902F8D00D002031
:109158001AF0CCFF0120FFF7C9BA0CAA92490120E6
:109168001AF0C4FF24A81AF0B3FD0AAA009212ABA1
:109178008B4901201AF0BAFF129B9DF82820BDF8F0
:10918800300024A915F042FE46AA864902F8EC0DE3
:1091980000201AF0ABFF0120FFF7A8BA0CAB0DF1C5
:1091A8002202824901201AF0A1FF24A81AF090FD9A
:1091B8000DF1260312AA019300927D4909AA012004
:1091C8001AF094FF129A01920BAC9DF826209DF894
:1091D8002430BDF8301000929DF82200029424AA91
:1091E80015F080FD46AA234602F8F00D6A490020D2
:1091F8001AF07CFF0120FFF779BA08238DF8303088
:109208000CAB0BAA00936B4924AB01201AF06EFF3C
:1092180024A99DF82C000FF04DF846AA614902F8E0
:10922800D00D00201AF062FF0120FFF75FBA24ABCF
:1092380012AA5E4901201AF059FF9DF84800BDF8AE
:1092480090100EF0E1FE0120FFF750BA24A807F0B5
:10925800AFFE46AA534902F8D00D00201AF046FF87
:1092680024A81AF060FD0120FFF740BA46AB082297
:1092780003F8E82D12AA00924F4924AA01201AF0F7
:1092880035FF24A89DF848100FF044F80120FFF797
:109298002DBA24AA434901201AF028FF9DF890000E
:1092A8000BF0F4FA0120FFF721BA0CAA3D4901207E
:1092B8001AF01CFF24A81AF02DFD24A99DF83000EF
:1092C80015F01AFE46AA374902F8D00D00201AF008
:1092D8000DFF0120FFF70ABA0BAB24AA01930092F5
:1092E800364912AA01201AF001FF249A9DF82C1081
:1092F800BDF8480015F002FB46AA2A4902F8E80D15
:1093080000201AF0F3FE0120FFF7F0B912AA254950
:1093180001201AF0EBFE9DF8480008F0A3F946AAD0
:10932800204902F8880D00201AF0E0FE0120FFF71E
:10933800DDB91CF0E7FE46AA1A4902F8880D00209C
:109348001AF0D4FE0120FFF7D1B917F039FA46AA6E
:109358001B4942F8880D00201AF0C8FE0120FFF7CB
:10936800C5B917F033FA46AA154942F8880D002006
:109378001AF0BCFE0120FFF7B9B916F07CFF46AA27
:10938800084902F8880D00201AF0B0FE0120FFF706
:10939800ADB900BF620603004E060300680603006D
:1093A800A21303007A0603003A06030083060300AB
:1093B800640603009D13030079060300700603008A
:1093C8003606030012AACD4901201AF08FFE9DF837
:1093D80048001CF099FE46AAC84902F8880D0020EA
:1093E8001AF084FE0120FFF781B924AAC44901209C
:1093F8001AF07CFEBDF8900017F0D6F90120FFF7AF
:1094080075B924AABD4901201AF070FE9DF8900094
:1094180016F03CFD0120FFF769B924AAB9490120DB
:109428001AF064FE249817F0D7F90120FFF75EB907
:1094380024AAB44901201AF059FE249817F0D2F949
:109448000120FFF753B916F0CFFE0120FFF74EB900
:1094580024A912A816F000FF12A81AF0D3FC24A819
:109468001AF001FD0120FFF741B924A81AF0A6FC63
:109478000CAB0BAAA44901201AF038FE9DF9302044
:109488009DF82C1024A81CF033FE46AA9B4902F82C
:10949800D00D00201AF02AFE0120FFF727B916F098
:1094A8004FFC46AA954902F8880D00201AF01EFEC6
:1094B8000120FFF71BB916F059FD46AA8F4902F89B
:1094C800880D00201AF012FE0120FFF70FB924A81A
:1094D8001AF0B1FC24A816F0C8FE0120FFF706B95F
:1094E80012A910201AF07CFB1AF0B6FB24901AF08F
:1094F8006FFB0DF195018DF8940010201AF070FBA8
:109508000DF1A50110201AF06BFB24A912A816F082
:1095180088FC46AA794902F8E80D00201AF0E6FD11
:109528000120FFF7E3B818F0B8F80120FFF7DEB81C
:1095380024AA724901201AF0D9FD9DF8900016F06E
:1095480075FD0120FFF7D2B824AA6E4901201AF050
:10955800CDFD249816F032FD46AA684902F8D00DD0
:1095680000201AF0C3FD0120FFF7C0B81AF074FB01
:1095780024901AF02DFB0DF195018DF89400102020
:109588001AF02EFB0DF1A50110201AF029FB24A8D2
:1095980016F042FC46AA594902F8D00D00201AF0EC
:1095A800A5FD0120FFF7A2B80CAB009324AA0BABD2
:1095B800564901201AF09AFD9DF830209DF92C108B
:1095C800249816F069FC46AA4C4902F8D00D0020F0
:1095D8001AF08CFD0120FFF789B846AB082203F882
:1095E800F02D0BAA00924A4912AA01201AF07EFD1A
:1095F80024A910201AF0F4FA24AA9DF82C1012A815
:109608001EF098F846AA3D4902F8E80D00201AF025
:109618006DFD0120FFF76AB846AB082203F8EC2D70
:109628003C4912AA01201AF061FD24A910201AF061
:10963800D7FA24A912A81AF057FE46AA2F4902F809
:10964800E80D00201AF052FD0120FFF74FB81EF078
:10965800D5F846AA294902F8880D00201AF046FDD7
:109668000120FFF743B81EF0CDF90120FFF73EB8FF
:1096780012AA224901201AF039FD00231A469DF842
:10968800481001201DF0E2FF46AA1C4902F8880D87
:1096980000201AF02BFD0120FFF728B846AB08225E
:1096A80003F8EC2D0CAA0092194924AA01201AF0FB
:1096B8001DFD9DF8301024A81DF0C2FF46AA0F49D1
:1096C80002F8D00D00201AF011FD0120FFF70EB8A6
:1096D80024A81EF09BFB46AA084902F8D00D0020DA
:1096E8001AF004FDBDF890001AF098FA08200DF160
:1096F80092011AF0BBFA0120FEF7F8BF7A060300C0
:109708003A06030036060300400603007406030009
:10971800790603002F2803000CAAC64901201AF075
:10972800E5FC24A99DF830001FF0F4FA46AAC149C7
:1097380002F8D00D00201AF0D9FCBDF890001AF0FC
:109748006DFA9DF892001AF059FA0DF19301102064
:109758001AF08CFA29981AF075FA2A981AF072FAFF
:109768009DF8AC001AF04AFA08200DF1AD011AF084
:109778007DFA0120FEF7BABF0CAAAE4901201AF003
:10978800B5FC24A99DF830001DF050FF46AAA94950
:1097980002F8D00D00201AF0A9FCBDF890001AF0CC
:1097A8003DFA9DF892001AF029FA0DF19301102064
:1097B8001AF05CFA29981AF045FA2A981AF042FA2F
:1097C8009DF8AC001AF01AFA08200DF1AD011AF054
:1097D8004DFA0120FEF78ABF0CAA964901201AF01B
:1097E80085FC24A99DF830001EF086F846AA914908
:1097F80002F8D00D00201AF079FC24A908201AF0EC
:1098080035FA26A910201AF031FA2A981AF01AFA0D
:10981800BDF8AC001AF002FABDF8AE001AF0FEF975
:109828000120FEF763BF46AB082403F8EC4D12AAEB
:10983800814901201AF05AFC24A912A81AF059FDEE
:1098480046AA7C4902F8E80D00201AF04FFC24A92A
:1098580020461AF00BFA26A910201AF007FA2A98BF
:109868001AF0F0F9BDF8AC001AF0D8F9BDF8AE005E
:109878001AF0D4F90120FEF739BF46AB082203F8E5
:10988800E82D6D4924AA01201AF030FC24A81FF005
:10989800B7FB46AA674902F8D00D00201AF026FC4B
:1098A8000120FEF723BF08238DF82C300BAB12AA3A
:1098B8000093624924AB01201AF018FC24A9BDF8D2
:1098C800480020F023FD46AA5A4902F8E80D002076
:1098D8001AF00CFC0120FEF709BF1AF0A9F946ACF2
:1098E8000DF1920124F8880D10201AF079F90DF184
:1098F800A20110201AF074F91AF06AF90DF1B301F7
:109908008DF8B20008201AF06BF920461EF07AFB99
:1099180046AA484902F8D00D00201AF0E7FB0120BA
:10992800FEF7E4BE08238DF828300BAB01930AAB91
:109938000DF126020093424912AB01201AF0D6FB22
:1099480024A910201AF04CF924AB12AA9DF826106D
:1099580000201DF07BFE46AA364902F8E80D0020DB
:109968001AF0C4FB0120FEF7C1BE12AA314901203A
:109978001AF0BCFB9DF848001FF020FC46AA2D49B0
:1099880002F8880D00201AF0B1FB0120FEF7AEBEE8
:1099980012A81AF0F7F90AAB0CAA01930092294908
:1099A8000DF12602012024AC1AF0A0FB0C9B9DF8B7
:1099B80028209DF82610009412A81AF07DFC46AACB
:1099C8001C4902F8EC0D00201AF090FB20461AF012
:1099D800CEF90120FEF78ABE24A910201AF000F95A
:1099E80024A820F0AFFC46AA124902F8D00D0020A6
:1099F8001AF07CFB0120FEF779BE20F071F946AA27
:109A08000C4902F8880D00201AF070FB0120FEF7BF
:109A18006DBE24A910201AF0E3F824A820F056F906
:109A280046AA044902F8D00D00201AF05FFB012075
:109A3800FEF75CBE7A0603002F28030089060300A0
:109A4800780603006406030008238DF826308DF895
:109A580028300AAB029324AC0DF1260300930CAA1C
:109A680012ABB749019401201AF040FB224612A913
:109A7800BDF8300020F08CF846AAB24902F8EC0D87
:109A880000201AF033FB0120FEF730BE08238DF8C2
:109A980028300AAB0CAA0093AB4912AB01201AF08C
:109AA80025FB24A910201AF09BF824AA12A9BDF8B6
:109AB800300020F0A9F846AAA24902F8EC0D0020CF
:109AC8001AF014FB0120FEF711BE0DF122030DF16F
:109AD80021029E4901201AF009FB24A81AF0EFF987
:109AE8000CAA0DF1260303920AAACDE9013212AAA3
:109AF8000092974909AA01201AF0F8FABDF8302017
:109B080003929DF828200292129A01929DF826202D
:109B18009DF824309DF8221000929DF8210024AA77
:109B28001BF00CF846AA874902F8EC0D00201AF041
:109B3800DDFA0120FEF7DABD0CAA824901201AF0ED
:109B4800D5FA24A99DF830001BF01AFC46AA7D49D5
:109B580002F8D00D00201AF0C9FA24A81AF019FA50
:109B68000120FEF7C3BD24A81AF0A9F924A81BF008
:109B780061FC46AA734902F8D00D00201AF0B6FA23
:109B88000120FEF7B3BD08230AAA72498DF81F30D9
:109B980001201AF0ABFA12A81AF091F90DF11F037F
:109BA80003930DF126030CAC019309AB0DF11E02D2
:109BB8000093694902940DF12203012024AD1AF0A3
:109BC80095FA294610201AF00BF808AB0BAA63493E
:109BD80001201AF08BFA9DF8201005910B99BDF819
:109BE80022309DF81E200294CDE90351BDF82610BD
:109BF8000191BDF8241000910A9812A91BF056FF94
:109C080046AA504902F8F70D00201AF06FFA012011
:109C1800FEF76CBD1CF050F90120FEF767BD24A8C3
:109C28001AF04DF924A81CF071F846AA454902F823
